{
  "contractName": "TimeLockedWallet",
  "abi": [
    {
      "constant": true,
      "inputs": [],
      "name": "creator",
      "outputs": [
        {
          "name": "",
          "type": "address"
        }
      ],
      "payable": false,
      "stateMutability": "view",
      "type": "function"
    },
    {
      "constant": true,
      "inputs": [],
      "name": "unlockDate",
      "outputs": [
        {
          "name": "",
          "type": "uint256"
        }
      ],
      "payable": false,
      "stateMutability": "view",
      "type": "function"
    },
    {
      "constant": true,
      "inputs": [],
      "name": "owner",
      "outputs": [
        {
          "name": "",
          "type": "address"
        }
      ],
      "payable": false,
      "stateMutability": "view",
      "type": "function"
    },
    {
      "constant": true,
      "inputs": [],
      "name": "createdAt",
      "outputs": [
        {
          "name": "",
          "type": "uint256"
        }
      ],
      "payable": false,
      "stateMutability": "view",
      "type": "function"
    },
    {
      "inputs": [
        {
          "name": "_creator",
          "type": "address"
        },
        {
          "name": "_owner",
          "type": "address"
        },
        {
          "name": "_unlockDate",
          "type": "uint256"
        }
      ],
      "payable": false,
      "stateMutability": "nonpayable",
      "type": "constructor"
    },
    {
      "payable": true,
      "stateMutability": "payable",
      "type": "fallback"
    },
    {
      "anonymous": false,
      "inputs": [
        {
          "indexed": false,
          "name": "from",
          "type": "address"
        },
        {
          "indexed": false,
          "name": "amount",
          "type": "uint256"
        }
      ],
      "name": "Received",
      "type": "event"
    },
    {
      "anonymous": false,
      "inputs": [
        {
          "indexed": false,
          "name": "to",
          "type": "address"
        },
        {
          "indexed": false,
          "name": "amount",
          "type": "uint256"
        }
      ],
      "name": "Withdrew",
      "type": "event"
    },
    {
      "anonymous": false,
      "inputs": [
        {
          "indexed": false,
          "name": "tokenContract",
          "type": "address"
        },
        {
          "indexed": false,
          "name": "to",
          "type": "address"
        },
        {
          "indexed": false,
          "name": "amount",
          "type": "uint256"
        }
      ],
      "name": "WithdrewTokens",
      "type": "event"
    },
    {
      "constant": false,
      "inputs": [],
      "name": "withdraw",
      "outputs": [],
      "payable": false,
      "stateMutability": "nonpayable",
      "type": "function"
    },
    {
      "constant": false,
      "inputs": [
        {
          "name": "_tokenContract",
          "type": "address"
        }
      ],
      "name": "withdrawTokens",
      "outputs": [],
      "payable": false,
      "stateMutability": "nonpayable",
      "type": "function"
    },
    {
      "constant": true,
      "inputs": [],
      "name": "info",
      "outputs": [
        {
          "name": "",
          "type": "address"
        },
        {
          "name": "",
          "type": "address"
        },
        {
          "name": "",
          "type": "uint256"
        },
        {
          "name": "",
          "type": "uint256"
        },
        {
          "name": "",
          "type": "uint256"
        }
      ],
      "payable": false,
      "stateMutability": "view",
      "type": "function"
    }
  ],
  "bytecode": "0x608060405234801561001057600080fd5b506040516060806105f58339810180604052606081101561003057600080fd5b5080516020820151604090920151600080546001600160a01b039384166001600160a01b031991821617909155600180549390941692169190911790915560025542600355610571806100846000396000f3fe6080604052600436106100705760003560e01c806349df728c1161004e57806349df728c1461014057806369ac5721146101735780638da5cb5b1461019a578063cf09e0d0146101af57610070565b806302d05d3f146100ac578063370158ea146100dd5780633ccfd60b14610129575b6040805133815234602082015281517f88a5966d370b9919b20f3e2c13ff65706f196a4e32cc2c12bf57088f88525874929181900390910190a1005b3480156100b857600080fd5b506100c16101c4565b604080516001600160a01b039092168252519081900360200190f35b3480156100e957600080fd5b506100f26101d3565b604080516001600160a01b039687168152949095166020850152838501929092526060830152608082015290519081900360a00190f35b34801561013557600080fd5b5061013e6101f8565b005b34801561014c57600080fd5b5061013e6004803603602081101561016357600080fd5b50356001600160a01b031661031f565b34801561017f57600080fd5b5061018861052a565b60408051918252519081900360200190f35b3480156101a657600080fd5b506100c1610530565b3480156101bb57600080fd5b5061018861053f565b6000546001600160a01b031681565b6000546001546002546003546001600160a01b03938416949390921692909190303190565b6001546001600160a01b0316331461025a5760408051600160e51b62461bcd02815260206004820152601360248201527f43616c6c6572206973206e6f74206f776e657200000000000000000000000000604482015290519081900360640190fd5b6002544210156102b45760408051600160e51b62461bcd02815260206004820152601e60248201527f77616c6c6574206973207374696c6c20696e206c6f636b20706572696f640000604482015290519081900360640190fd5b6040513390303180156108fc02916000818181858888f193505050501580156102e1573d6000803e3d6000fd5b50604080513381523031602082015281517fb244b9a17ad633c6e83b7983ee04320484956a68ddbe96a0b70dfca1cf19d723929181900390910190a1565b6001546001600160a01b031633146103815760408051600160e51b62461bcd02815260206004820152601360248201527f43616c6c6572206973206e6f74206f776e657200000000000000000000000000604482015290519081900360640190fd5b6002544210156103db5760408051600160e51b62461bcd02815260206004820152601e60248201527f77616c6c6574206973207374696c6c20696e206c6f636b20706572696f640000604482015290519081900360640190fd5b60408051600160e01b6370a08231028152306004820152905182916000916001600160a01b038416916370a08231916024808301926020929190829003018186803b15801561042957600080fd5b505afa15801561043d573d6000803e3d6000fd5b505050506040513d602081101561045357600080fd5b505160015460408051600160e01b63a9059cbb0281526001600160a01b0392831660048201526024810184905290519293509084169163a9059cbb916044808201926020929091908290030181600087803b1580156104b157600080fd5b505af11580156104c5573d6000803e3d6000fd5b505050506040513d60208110156104db57600080fd5b5050604080516001600160a01b038516815233602082015280820183905290517fa04c965e7d289704527a948915777d68bb4530fb4b08aa935fb958c0b7901ab99181900360600190a1505050565b60025481565b6001546001600160a01b031681565b6003548156fea165627a7a723058200814b568cfeb56a9c49602d58c48607f9b2a29c15dcf40cfd5e285b8b5ef77d30029",
  "source": "pragma solidity >= 0.4.18 < 0.6.0;\n\nimport \"./ERC20.sol\";\n\ncontract TimeLockedWallet {\n\n    address public creator;\n    address public owner;\n    uint256 public unlockDate;\n    uint256 public createdAt;\n\n    modifier onlyOwner {\n        require(msg.sender == owner, \"Caller is not owner\");\n        _;\n    }\n\n    constructor(\n        address _creator,\n        address _owner,\n        uint256 _unlockDate\n    ) public {\n        creator = _creator;\n        owner = _owner;\n        unlockDate = _unlockDate;\n        createdAt = block.timestamp;\n    }\n\n    // keep all the ether sent to this address\n    function () external payable { \n        emit Received(msg.sender, msg.value);\n    }\n\n    // callable by owner only, after specified time\n    function withdraw() public onlyOwner{\n       require(now >= unlockDate, \"wallet is still in lock period\");\n       //now send all the balance\n       msg.sender.transfer(address(this).balance);\n       emit Withdrew(msg.sender, address(this).balance);\n    }\n\n    // callable by owner only, after specified time, only for Tokens implementing ERC20\n    function withdrawTokens(address _tokenContract) public onlyOwner {\n       require(now >= unlockDate, \"wallet is still in lock period\");\n       ERC20 token = ERC20(_tokenContract);\n       //now send all the token balance\n       uint256 tokenBalance = token.balanceOf(address(this));\n       token.transfer(owner, tokenBalance);\n       emit WithdrewTokens(_tokenContract, msg.sender, tokenBalance);\n    }\n\n    function info() public view returns(address, address, uint256, uint256, uint256) {\n        return (creator, owner, unlockDate, createdAt, address(this).balance);\n    }\n\n    event Received(address from, uint256 amount);\n    event Withdrew(address to, uint256 amount);\n    event WithdrewTokens(address tokenContract, address to, uint256 amount);\n}\n",
  "sourcePath": "/Data/projects/MPL/Fusion/time-locked-wallets/contracts/TimeLockedWallet.sol",
  "compiler": {
    "name": "solc",
    "version": "0.5.8+commit.23d335f2.Emscripten.clang"
  },
  "schemaVersion": "3.0.15",
  "updatedAt": "2019-12-09T02:58:19.660Z",
  "devdoc": {
    "methods": {}
  },
  "userdoc": {
    "methods": {}
  }
}