{
  "contractName": "TimeLockedWalletFactory",
  "abi": [
    {
      "payable": false,
      "stateMutability": "nonpayable",
      "type": "fallback"
    },
    {
      "anonymous": false,
      "inputs": [
        {
          "indexed": false,
          "name": "wallet",
          "type": "address"
        },
        {
          "indexed": false,
          "name": "from",
          "type": "address"
        },
        {
          "indexed": false,
          "name": "to",
          "type": "address"
        },
        {
          "indexed": false,
          "name": "createdAt",
          "type": "uint256"
        },
        {
          "indexed": false,
          "name": "unlockDate",
          "type": "uint256"
        },
        {
          "indexed": false,
          "name": "amount",
          "type": "uint256"
        }
      ],
      "name": "Created",
      "type": "event"
    },
    {
      "constant": true,
      "inputs": [
        {
          "name": "_user",
          "type": "address"
        }
      ],
      "name": "getWallets",
      "outputs": [
        {
          "name": "",
          "type": "address[]"
        }
      ],
      "payable": false,
      "stateMutability": "view",
      "type": "function"
    },
    {
      "constant": false,
      "inputs": [
        {
          "name": "_owner",
          "type": "address"
        },
        {
          "name": "_unlockDate",
          "type": "uint256"
        }
      ],
      "name": "newTimeLockedWallet",
      "outputs": [
        {
          "name": "",
          "type": "address"
        }
      ],
      "payable": true,
      "stateMutability": "payable",
      "type": "function"
    }
  ],
  "bytecode": "0x608060405234801561001057600080fd5b50610960806100206000396000f3fe6080604052600436106100295760003560e01c80630a9ef92714610086578063422c29a4146100ce575b34801561003557600080fd5b5060408051600160e51b62461bcd02815260206004820152601e60248201527f436f756c64206e6f742073656e642065746820746f20636f6e74726163740000604482015290519081900360640190fd5b6100b26004803603604081101561009c57600080fd5b506001600160a01b038135169060200135610151565b604080516001600160a01b039092168252519081900360200190f35b3480156100da57600080fd5b50610101600480360360208110156100f157600080fd5b50356001600160a01b03166102be565b60408051602080825283518183015283519192839290830191858101910280838360005b8381101561013d578181015183820152602001610125565b505050509050019250505060405180910390f35b60008033848460405161016390610332565b6001600160a01b039384168152919092166020820152604080820192909252905190819003606001906000f0801580156101a1573d6000803e3d6000fd5b50336000818152602081815260408220805460018101825590835291200180546001600160a01b0319166001600160a01b038481169190911790915591925090851614610225576001600160a01b038481166000908152602081815260408220805460018101825590835291200180546001600160a01b0319169183169190911790555b6040516001600160a01b038216903480156108fc02916000818181858888f1935050505015801561025a573d6000803e3d6000fd5b50604080516001600160a01b038084168252336020830152861681830152426060820152608081018590523460a082015290517f14d5db8c1f746c7adcbcd13cf8945dd2ac6ad58be52380b8c4933c876f76e1bf9181900360c00190a15092915050565b6001600160a01b0381166000908152602081815260409182902080548351818402810184019094528084526060939283018282801561032657602002820191906000526020600020905b81546001600160a01b03168152600190910190602001808311610308575b50505050509050919050565b6105f5806103408339019056fe608060405234801561001057600080fd5b506040516060806105f58339810180604052606081101561003057600080fd5b5080516020820151604090920151600080546001600160a01b039384166001600160a01b031991821617909155600180549390941692169190911790915560025542600355610571806100846000396000f3fe6080604052600436106100705760003560e01c806349df728c1161004e57806349df728c1461014057806369ac5721146101735780638da5cb5b1461019a578063cf09e0d0146101af57610070565b806302d05d3f146100ac578063370158ea146100dd5780633ccfd60b14610129575b6040805133815234602082015281517f88a5966d370b9919b20f3e2c13ff65706f196a4e32cc2c12bf57088f88525874929181900390910190a1005b3480156100b857600080fd5b506100c16101c4565b604080516001600160a01b039092168252519081900360200190f35b3480156100e957600080fd5b506100f26101d3565b604080516001600160a01b039687168152949095166020850152838501929092526060830152608082015290519081900360a00190f35b34801561013557600080fd5b5061013e6101f8565b005b34801561014c57600080fd5b5061013e6004803603602081101561016357600080fd5b50356001600160a01b031661031f565b34801561017f57600080fd5b5061018861052a565b60408051918252519081900360200190f35b3480156101a657600080fd5b506100c1610530565b3480156101bb57600080fd5b5061018861053f565b6000546001600160a01b031681565b6000546001546002546003546001600160a01b03938416949390921692909190303190565b6001546001600160a01b0316331461025a5760408051600160e51b62461bcd02815260206004820152601360248201527f43616c6c6572206973206e6f74206f776e657200000000000000000000000000604482015290519081900360640190fd5b6002544210156102b45760408051600160e51b62461bcd02815260206004820152601e60248201527f77616c6c6574206973207374696c6c20696e206c6f636b20706572696f640000604482015290519081900360640190fd5b6040513390303180156108fc02916000818181858888f193505050501580156102e1573d6000803e3d6000fd5b50604080513381523031602082015281517fb244b9a17ad633c6e83b7983ee04320484956a68ddbe96a0b70dfca1cf19d723929181900390910190a1565b6001546001600160a01b031633146103815760408051600160e51b62461bcd02815260206004820152601360248201527f43616c6c6572206973206e6f74206f776e657200000000000000000000000000604482015290519081900360640190fd5b6002544210156103db5760408051600160e51b62461bcd02815260206004820152601e60248201527f77616c6c6574206973207374696c6c20696e206c6f636b20706572696f640000604482015290519081900360640190fd5b60408051600160e01b6370a08231028152306004820152905182916000916001600160a01b038416916370a08231916024808301926020929190829003018186803b15801561042957600080fd5b505afa15801561043d573d6000803e3d6000fd5b505050506040513d602081101561045357600080fd5b505160015460408051600160e01b63a9059cbb0281526001600160a01b0392831660048201526024810184905290519293509084169163a9059cbb916044808201926020929091908290030181600087803b1580156104b157600080fd5b505af11580156104c5573d6000803e3d6000fd5b505050506040513d60208110156104db57600080fd5b5050604080516001600160a01b038516815233602082015280820183905290517fa04c965e7d289704527a948915777d68bb4530fb4b08aa935fb958c0b7901ab99181900360600190a1505050565b60025481565b6001546001600160a01b031681565b6003548156fea165627a7a723058200814b568cfeb56a9c49602d58c48607f9b2a29c15dcf40cfd5e285b8b5ef77d30029a165627a7a7230582027e8f4afb67f09722e3571faa40bd69989d346def9973b1ce6cfb7ebe5e8d3fc0029",
  "source": "pragma solidity >= 0.4.18 < 0.6.0;\n\nimport \"./TimeLockedWallet.sol\";\n\ncontract TimeLockedWalletFactory {\n\n    mapping(address => address[]) wallets;\n\n    function getWallets(address _user) public view returns(address[] memory) {\n        return wallets[_user];\n    }\n\n    function newTimeLockedWallet(address _owner, uint256 _unlockDate) public payable returns(address) {\n        // Create new wallet.\n        address payable wallet = address(new TimeLockedWallet(msg.sender, _owner, _unlockDate));\n\n        // Add wallet to sender's wallets.\n        wallets[msg.sender].push(wallet);\n\n        // If owner is the same as sender then add wallet to sender's wallets too.\n        if(msg.sender != _owner){\n            wallets[_owner].push(wallet);\n        }\n\n        // Send ether from this transaction to the created contract.\n        wallet.transfer(msg.value);\n\n        // Emit event.\n        emit Created(wallet, msg.sender, _owner, now, _unlockDate, msg.value);\n    }\n\n    // Prevents accidental sending of ether to the factory\n    function () external {\n        revert(\"Could not send eth to contract\");\n    }\n\n    event Created(address wallet, address from, address to, uint256 createdAt, uint256 unlockDate, uint256 amount);\n}\n",
  "sourcePath": "/Data/projects/MPL/Fusion/time-locked-wallets/contracts/TimeLockedWalletFactory.sol",
  "compiler": {
    "name": "solc",
    "version": "0.5.8+commit.23d335f2.Emscripten.clang"
  },
  "schemaVersion": "3.0.15",
  "updatedAt": "2019-12-09T04:06:39.220Z",
  "devdoc": {
    "methods": {}
  },
  "userdoc": {
    "methods": {}
  }
}