{
  "contractName": "TokenTimeLockedWallet",
  "abi": [
    {
      "constant": true,
      "inputs": [],
      "name": "creator",
      "outputs": [
        {
          "name": "",
          "type": "address"
        }
      ],
      "payable": false,
      "stateMutability": "view",
      "type": "function"
    },
    {
      "constant": true,
      "inputs": [],
      "name": "owner",
      "outputs": [
        {
          "name": "",
          "type": "address"
        }
      ],
      "payable": false,
      "stateMutability": "view",
      "type": "function"
    },
    {
      "constant": true,
      "inputs": [],
      "name": "createdAt",
      "outputs": [
        {
          "name": "",
          "type": "uint256"
        }
      ],
      "payable": false,
      "stateMutability": "view",
      "type": "function"
    },
    {
      "inputs": [
        {
          "name": "_creator",
          "type": "address"
        },
        {
          "name": "_owner",
          "type": "address"
        },
        {
          "name": "_lockTimeFrames",
          "type": "uint256[]"
        },
        {
          "name": "_lockAmounts",
          "type": "uint256[]"
        }
      ],
      "payable": false,
      "stateMutability": "nonpayable",
      "type": "constructor"
    },
    {
      "anonymous": false,
      "inputs": [
        {
          "indexed": false,
          "name": "tokenContract",
          "type": "address"
        },
        {
          "indexed": false,
          "name": "to",
          "type": "address"
        },
        {
          "indexed": false,
          "name": "amount",
          "type": "uint256"
        }
      ],
      "name": "WithdrewTokens",
      "type": "event"
    },
    {
      "constant": false,
      "inputs": [
        {
          "name": "_lockTimeFrame",
          "type": "uint256"
        },
        {
          "name": "_unlockAmount",
          "type": "uint256"
        }
      ],
      "name": "addNewLock",
      "outputs": [
        {
          "name": "",
          "type": "bool"
        }
      ],
      "payable": false,
      "stateMutability": "nonpayable",
      "type": "function"
    },
    {
      "constant": false,
      "inputs": [
        {
          "name": "_tokenContract",
          "type": "address"
        }
      ],
      "name": "withdrawTokens",
      "outputs": [
        {
          "name": "",
          "type": "bool"
        }
      ],
      "payable": false,
      "stateMutability": "nonpayable",
      "type": "function"
    },
    {
      "constant": true,
      "inputs": [],
      "name": "info",
      "outputs": [
        {
          "name": "",
          "type": "address"
        },
        {
          "name": "",
          "type": "address"
        },
        {
          "name": "",
          "type": "uint256"
        },
        {
          "name": "",
          "type": "uint256[]"
        },
        {
          "name": "",
          "type": "uint256[]"
        },
        {
          "name": "",
          "type": "bool[]"
        }
      ],
      "payable": false,
      "stateMutability": "view",
      "type": "function"
    }
  ],
  "bytecode": "0x608060405234801561001057600080fd5b50604051610ace380380610ace8339810180604052608081101561003357600080fd5b815160208301516040840180519294919382019264010000000081111561005957600080fd5b8201602081018481111561006c57600080fd5b815185602082028301116401000000008211171561008957600080fd5b505092919060200180516401000000008111156100a557600080fd5b820160208101848111156100b857600080fd5b81518560208202830111640100000000821117156100d557600080fd5b5050929190505050600082511161014d57604080517f08c379a000000000000000000000000000000000000000000000000000000000815260206004820152601460248201527f496e76616c6964206c6f636b20706572696f6473000000000000000000000000604482015290519081900360640190fd5b80518251146101a7576040517f08c379a0000000000000000000000000000000000000000000000000000000008152600401808060200182810382526030815260200180610a9e6030913960400191505060405180910390fd5b600080546001600160a01b038087166001600160a01b03199283161783556001805491871691909216179055426002555b825181101561026b57600360405180606001604052808584815181106101fa57fe5b6020026020010151815260200184848151811061021357fe5b60209081029190910181015182526000918101829052835460018082018655948352918190208351600390930201918255820151818401556040909101516002909101805460ff1916911515919091179055016101d8565b505050505061081f8061027f6000396000f3fe608060405234801561001057600080fd5b50600436106100625760003560e01c806302d05d3f14610067578063370158ea1461008b57806349df728c146101aa5780637bd4870b146101e45780638da5cb5b14610207578063cf09e0d01461020f575b600080fd5b61006f610229565b604080516001600160a01b039092168252519081900360200190f35b610093610238565b60405180876001600160a01b03166001600160a01b03168152602001866001600160a01b03166001600160a01b03168152602001858152602001806020018060200180602001848103845287818151815260200191508051906020019060200280838360005b838110156101115781810151838201526020016100f9565b50505050905001848103835286818151815260200191508051906020019060200280838360005b83811015610150578181015183820152602001610138565b50505050905001848103825285818151815260200191508051906020019060200280838360005b8381101561018f578181015183820152602001610177565b50505050905001995050505050505050505060405180910390f35b6101d0600480360360208110156101c057600080fd5b50356001600160a01b03166103cd565b604080519115158252519081900360200190f35b6101d0600480360360408110156101fa57600080fd5b5080359060200135610668565b61006f6107de565b6102176107ed565b60408051918252519081900360200190f35b6000546001600160a01b031681565b6000806000606080606060006003805490509050606081604051908082528060200260200182016040528015610278578160200160208202803883390190505b5090506060826040519080825280602002602001820160405280156102a7578160200160208202803883390190505b5090506060836040519080825280602002602001820160405280156102d6578160200160208202803883390190505b50905060005b848110156103a257600381815481106102f157fe5b90600052602060002090600302016000015484828151811061030f57fe5b6020026020010181815250506003818154811061032857fe5b90600052602060002090600302016001015483828151811061034657fe5b6020026020010181815250506003818154811061035f57fe5b906000526020600020906003020160020160009054906101000a900460ff1682828151811061038a57fe5b911515602092830291909101909101526001016102dc565b506000546001546002546001600160a01b039283169d929091169b5099509297509095509350915050565b60006001600160a01b03821661042d5760408051600160e51b62461bcd02815260206004820152601660248201527f496e76616c696420746f6b656e20636f6e747261637400000000000000000000604482015290519081900360640190fd5b60005b60035481101561065f57426003828154811061044857fe5b90600052602060002090600302016000015410801561048857506003818154811061046f57fe5b600091825260209091206002600390920201015460ff16155b156106575760408051600160e01b6370a08231028152306004820152905184916000916001600160a01b038416916370a08231916024808301926020929190829003018186803b1580156104db57600080fd5b505afa1580156104ef573d6000803e3d6000fd5b505050506040513d602081101561050557600080fd5b5051600380549192506000918590811061051b57fe5b9060005260206000209060030201600101549050600082821161053e5781610540565b825b60015460408051600160e01b63a9059cbb0281526001600160a01b0392831660048201526024810184905290519293506000929187169163a9059cbb9160448082019260209290919082900301818787803b15801561059e57600080fd5b505af11580156105b2573d6000803e3d6000fd5b505050506040513d60208110156105c857600080fd5b505190508015610651576001600387815481106105e157fe5b6000918252602091829020600260039092020101805492151560ff1990931692909217909155604080516001600160a01b038b1681523392810192909252818101849052517fa04c965e7d289704527a948915777d68bb4530fb4b08aa935fb958c0b7901ab99181900360600190a15b50505050505b600101610430565b50600192915050565b6001546000906001600160a01b031633146106cd5760408051600160e51b62461bcd02815260206004820152601360248201527f43616c6c6572206973206e6f74206f776e657200000000000000000000000000604482015290519081900360640190fd5b630966018083106107285760408051600160e51b62461bcd02815260206004820152601f60248201527f4c6f636b2074696d6520636f756c64206e6f7420626520746f6f206c6f6e6700604482015290519081900360640190fd5b506040805160608101825292835260208301918252600090830181815260038054600180820183559382905294517fc2575a0e9e593c00f959f8c92f12db2869c3395a3b0502d05e2516446f71f85b959091029485015591517fc2575a0e9e593c00f959f8c92f12db2869c3395a3b0502d05e2516446f71f85c84015590517fc2575a0e9e593c00f959f8c92f12db2869c3395a3b0502d05e2516446f71f85d909201805460ff19169215159290921790915590565b6001546001600160a01b031681565b6002548156fea165627a7a7230582059b09ca61d9964edbea0278bba950451f27ad7a132f00dcae3b5f068710dde720029556e6c6f636b20706572696f6420616e6420616d6f756e7420646566696e6564206973206e6f74207468652073616d65",
  "source": "pragma solidity >= 0.4.18 < 0.6.0;\n\nimport \"./ERC20.sol\";\nimport \"./SafeMath.sol\";\n\ncontract TokenTimeLockedWallet {\n    using SafeMath for uint;\n\n    struct LockLevel {\n        uint256 unlockTime;\n        uint256 amount;\n        bool isWithdraw;\n    }\n\n    address public creator;\n    address public owner; //beneficiary\n    uint256 public createdAt;\n    uint constant MAX_TIME_STEP = 5*365*24*60*60; // 5 years\n\n    LockLevel[] internal locks;\n\n    // uint256[] public lockTimeFrames;\n    // mapping(uint => uint) lockAmounts; // mapping lockTimeFrames to lockAmounts\n    // mapping(uint => bool) withdraws;\n    // uint256[] public lockAmounts;\n    // uint256 public unlockDate;\n\n    modifier onlyOwner {\n        require(msg.sender == owner, \"Caller is not owner\");\n        _;\n    }\n\n    constructor(\n        address _creator,\n        address _owner,\n        uint256[] memory _lockTimeFrames,\n        uint256[] memory _lockAmounts\n    ) public {\n        // verify unlock time\n        require(_lockTimeFrames.length > 0, \"Invalid lock periods\");\n        require(_lockTimeFrames.length == _lockAmounts.length, \"Unlock period and amount defined is not the same\");\n\n        creator = _creator;\n        owner = _owner;\n        createdAt = block.timestamp;\n\n        for(uint idx = 0; idx < _lockTimeFrames.length; idx++) {\n            // require(_lockTimeFrames[idx] > now, \"Step could not be too long\");\n            locks.push(LockLevel(_lockTimeFrames[idx], _lockAmounts[idx], false));\n        }\n\n        \n\n        // lockTimeFrames = _lockTimeFrames;\n        // lockAmounts = _lockAmounts;\n    }\n\n    // keep all the ether sent to this address\n    // function () external payable { \n    //     emit Received(msg.sender, msg.value);\n    // }\n\n    function addNewLock(uint _lockTimeFrame, uint _unlockAmount) public onlyOwner returns(bool){\n        require(_lockTimeFrame < MAX_TIME_STEP, \"Lock time could not be too long\");\n\n        locks.push(LockLevel(_lockTimeFrame, _unlockAmount, false));\n        // lockTimeFrames.push(_lockTimeFrame);\n        // lockAmounts.push(_unlockAmount);\n\n        return true;\n    }\n\n    // callable by owner only, after specified time, only for Tokens implementing ERC20\n    function withdrawTokens(address _tokenContract) public returns(bool) {\n        require(_tokenContract != address(0), \"Invalid token contract\");\n\n        // calculate amount token can withdraw\n        for(uint idx = 0; idx < locks.length; idx++) {\n            if(locks[idx].unlockTime < now && !locks[idx].isWithdraw) {\n                ERC20 token = ERC20(_tokenContract);\n                //now send all the token balance\n                uint256 tokenBalance = token.balanceOf(address(this));\n                uint256 desiredAmount = locks[idx].amount;\n                uint256 withdrawToken = desiredAmount > tokenBalance?tokenBalance:desiredAmount;\n\n                bool result = token.transfer(owner, withdrawToken);\n                if(result) {\n                    locks[idx].isWithdraw = true;\n                    emit WithdrewTokens(_tokenContract, msg.sender, withdrawToken);\n                }\n            }\n        }\n\n        return true;\n    }\n\n    function info() public view returns(address, address, uint256, uint256[] memory, uint256[] memory, bool[] memory) {\n        uint256 len = locks.length;\n        uint256[] memory unlockTimeFrames = new uint256[](len);\n        uint256[] memory unLockAmounts = new uint256[](len);\n        bool[] memory isWithdraw = new bool[](len);\n        for(uint idx = 0; idx < len; idx++) {\n            unlockTimeFrames[idx] = locks[idx].unlockTime;\n            unLockAmounts[idx] = locks[idx].amount;\n            isWithdraw[idx] = locks[idx].isWithdraw;\n        }\n\n        return (creator, owner, createdAt, unlockTimeFrames, unLockAmounts, isWithdraw);\n    }\n\n    // function lockInfo() public view returns (uint256[] memory, uint256[] memory) {\n    //     return (lockTimeFrames, lockAmounts);\n    // }\n    event WithdrewTokens(address tokenContract, address to, uint256 amount);\n}\n",
  "sourcePath": "/Data/projects/MPL/Fusion/time-locked-wallets/contracts/TokenTimeLockedWallet.sol",
  "compiler": {
    "name": "solc",
    "version": "0.5.8+commit.23d335f2.Emscripten.clang"
  },
  "schemaVersion": "3.0.15",
  "updatedAt": "2019-12-11T09:31:17.968Z",
  "devdoc": {
    "methods": {}
  },
  "userdoc": {
    "methods": {}
  }
}